:020000020000FC
:100000000C947226189518951895189518951895AA
:100010001895189518951895189518950C94041618
:100020001895189518951895189518950C94DE0F35
:100030001895189518951895189518950C947E1084
:1000400018951895189518950C94BF0B1895189538
:100050000C944E25189518950C940426189518950F
:100060001895189518951895189518951895189528
:100070000C94CA07189518950C94230800000000EA
:100080000000000000000020202020200000202090
:100090000000282850000000000000000028287CF4
:1000A00028282828287C282810385454301814541C
:1000B0005438102454582810102834544800205024
:1000C00050202054544848340030102000000000D4
:1000D0000000000008101020202020201010082010
:1000E0001010080808080810102000001054543898
:1000F000545410000000001010107C10101000006C
:10010000000000000000000030102000000000008F
:100110007800000000000000000000000000303007
:100120000004040808101010202040400030484807
:100130004848484848300000103010101010101087
:100140001000003048480810202040780000304857
:100150004808300848483000000818182828487C0B
:1001600008080000784040704808484830000030D7
:10017000484840704848483000007808081010107F
:1001800020202000003048484830484848300000CF
:1001900030484848380848483000000000303000F7
:1001A000000030300000000030300000003010202F
:1001B000000408102040201008040000000078000F
:1001C00000780000000000402010080408102040C3
:1001D0000000304848081010001010000038447427
:1001E00054547448443800001010282828447C4493
:1001F000440000784444447844444478000038443F
:10020000444040404444380000704844444444441E
:10021000487000007C404040784040407C00007CBA
:100220004040407840404040000038444440404C0A
:10023000444C340000444444447C4444444400005E
:1002400038101010101010103800000808080808A6
:100250000848483000004848505060505048480016
:100260000040404040404040407C000044446C6CB2
:100270006C5454545400004464645454544C4C44DE
:100280000000384444444444444438000078444422
:10029000447840404040000038444444444454487A
:1002A00034000078444444784844444400003844CE
:1002B0004420100844443800007C10101010101026
:1002C0001010000044444444444444443800004472
:1002D0004444282828101010000054545454542822
:1002E00028282800004444282810282844440000D6
:1002F00044442828101010101000007C0408081036
:100300002020407C001C1010101010101010101C29
:100310004040202010101008080404701010101025
:1003200010101010107010280000000000000000D5
:100330000000000000000000000000FC3010200061
:10034000000000000000000000000030483848486D
:1003500034000040404078444444447800000000A9
:100360000038444040443800000404043C44444401
:10037000443C000000000038447C40443800001831
:100380002020702020202020000000000034483071
:1003900040384438004040407844444444440000DD
:1003A000101000101010101010000010100010108D
:1003B0001010101060004040404448507048440005
:1003C0000010101010101010101000000000006835
:1003D00054545454540000000000784444444444AD
:1003E000000000000038444444443800000000008D
:1003F00078444444784040000000003C4444443C7D
:100400000404000000002C30202020200000000008
:10041000003844300844380000202020702020207C
:100420002018000000000044444444443C00000004
:1004300000004444282810100000000000545454C8
:10044000282828000000000044281010284400003C
:1004500000000044442828101060000000007C04C4
:100460000810207C00181010101020101010101808
:10047000101010101000101010101030101010106C
:100480000810101010303448000000000000000078
:10049000000000183C66C3C3663C18000000183C0E
:1004A00066DBDB663C18000000FF81818181818171
:1004B000FF000000FFC3A59999A5C3FF000000201D
:1004C00030383C3830200000000010387CFE00003E
:1004D0000000000000FE7C3810000000000000005A
:1004E00008183878381808000008010801080108C1
:1004F00001080110021002200409090909090A0A69
:100500000B443230303031343238433030303934CB
:10051000300020204572726F723A2031303920004D
:1005200000000100000000000000000F00010000BA
:1005300000000000030232000A64FF00000203040E
:1005400004000000000000000000000000000000A7
:10055000000000000100000000000000000000009A
:10056000000000000000000000000000000000018A
:10057000000000000000000000000000000000007B
:100580000000000000000100000000000000000F5B
:100590000001000000000000030205000A64FF00E3
:1005A000000203040400000000000000000000003E
:1005B000000000000000000000000000000000003B
:1005C00000001E0000000000000001010400000007
:1005D000000000000000000000000000000000001B
:1005E000000000000000000000000000000000000B
:1005F000000000001E0000000000000001010400D7
:1006000000000000000000000000000000000000EA
:1006100000000000000000000000443230303031A3
:10062000343231303030303030300043616C696208
:10063000726174696F6E2053746174696F6E0044E7
:10064000656C69766572792053746174696F6E00A8
:10065000546573742046756E6374696F6E616C695E
:100660007479003030573030005E58417E5441304C
:100670007E4A534F5E4C54305E4D4D545E4D4E5746
:100680005E4D54545E504F4E5E504D4E5E4C483061
:100690002C305E4A4D415E5052322C325E4D443316
:1006A000305E4A55535E4C524E5E4349305E585A56
:1006B0007E44473030312E4752462C303037363862
:1006C0002C3031322C2C3A3A3A3A3A3A3A3A3A3ACF
:1006D0003A3A3A5530432C543032342C5430483462
:1006E0002C543038322C53303130322C533034309B
:1006F000312C53304330312C4E303346453031307D
:10070000483038302C4C3031433048303136304866
:100710003038302C4B303138302C4B3043304F3068
:1007200034302C4A3032302C4A3043305030323062
:100730002C49303230513045302C493034304E3035
:100740003430372C493038304F3033302C4830314A
:10075000304F303138302C48303230483033383038
:1007600030383031382C4830343030373048303140
:10077000343034302C483038303138304830323032
:10078000362C48303830343049304834302C303111
:100790003033304A30412C3035303430493031300C
:1007A0002C303231302C303232302C303234302C4C
:1007B000303443302C30352C3A30362C30342C2C1D
:1007C0003A3A3A3A3A3A3A3A3A3A3A3A3A3A3A3A89
:1007D0003A3A5E58415E4C4C303132305E505732BE
:1007E00039365E46543136302C36345E5847303018
:1007F000312E4752462C312C315E46535E425933DE
:10080000362C33365E46543235302C35395E4258FC
:100810004E2C322C3230302C302C302C31005E46B5
:10082000535E464F2C32365E46535E465431363563
:100830002C36365E41304E2C32312C31395E4648F2
:100840005C5E4644005E46535E464F2C33315E4646
:10085000535E46543136352C39365E41304E2C329B
:10086000352C32345E46485C5E464449443A005E6C
:1008700046535E425934382C34385E465435352C54
:1008800039385E4258422C322C3230302C302C30E9
:100890002C315E46485C5E4644005E46535E464FE1
:1008A0002C32325E46535E46543132362C39385E35
:1008B0004130422C31382C31365E46485C5E46442D
:1008C00049443A005E46535E464F2C32315E4653F1
:1008D0005E46543130392C39385E4130422C313744
:1008E0002C31365E46485C5E4644005E46535E46AA
:1008F0004F2C32315E46535E465437362C39385EC3
:100900004130422C31372C31365E46485C5E4644DD
:10091000005E46535E464F2C32325E46535E46546E
:1009200039332C39385E4130422C31372C31365E28
:1009300046485C5E464400203030375E46535E5089
:1009400051312C302C312C595E585A5E58415E4939
:0F095000443030302E4752465E46535E585A00B0
:1009600030001D0B0A00C90AD00ADB0AEB0AF20AA2
:10097000C90AF90A000B070B0E0B00009B1A1400A2
:100980006A197A198A199A19AA19BA19CA19DA198F
:10099000EA19FA190A1A1A1A2A1A3A1A4A1A5A1A79
:1009A0006A1A7A1A9B1A8A1A0001761BA51A01B5CF
:1009B0001A01C51A01D51A01E51A01F51A01051B1C
:1009C00001151B01251B01351B07451B01551B028A
:1009D000651BFB000001511C801B01901B01A01B2B
:1009E00001B01B01C01B01D01B01E01B01F01B016A
:1009F000001C01101C07201C01301C02401CFB00C5
:100A0000904E00811F07003F1E4A1E6C1E971EDF7E
:100A10001E071F421F00904700E423040040238C60
:100A2000239E23C52300560822060000220500014C
:100A300060500FEF01B9299A479808EC10E00E9426
:100A40001D10479A08EC10E00E941D1002EE3ED0E7
:100A500008EC10E00E941D1001E338D008E036D009
:100A60000BE234D006E232D002EA30D009EE2ED0CA
:100A700001EF2CD00FE92AD001E828D00BEC26D0CA
:100A800004EC24D009E822D001ED20D005ED1ED0E1
:100A900008EC1CD006E11AD005E218D00DEA16D0F9
:100AA00008EC10E00E941D1057D004EF0FD005E2B3
:100AB0000DD006EF0BD00AE509D005EF07D000E016
:100AC00005D007EF03D00FE901D0089528982B989F
:100AD0002A980ED002B92A9A2B9A289A0895289813
:100AE0002A982B9A05D002B92A9A2B98289A089509
:100AF000089504EFEBDF05E2E9DF06EFE7DF0AE543
:100B0000E5DF05EFE3DF00E0E1DF07EFDFDF0FE91F
:100B1000DDDF00E7DBDF00E6D9DF02E1D7DF05E05C
:100B2000D5DF08EFD3DF089520E00AC010EF10836F
:100B3000000F07FB1EF410811F601083000F239528
:100B4000243048F430E0E2E2F6E0E20FF31F07FB66
:100B50006EF33083EDCF08959A938A93CADF90E0C5
:100B600006C000E0BCDF83958235D8F39395903AB8
:100B700010F480E0F9CF8991999108950E94B327EC
:100B8000D801922F532E442E80E0442D352D082F6E
:100B9000000F292F200F622F732F242E2CE13FEFFF
:100BA000082F10E0FD01E00FF11F408150E00BE045
:100BB0000E94B326200F311F8901422D372F262F87
:100BC0006ED0839510E0FD01E80FF11F0081002336
:100BD000E1F6E6E00C94C4270E94B327D801922FD7
:100BE000532E442E80E0FD01049100933807442DDC
:100BF000352D082F000F292F200F622F732F242E41
:100C00002CE13FEF082F10E0FD01E00FF11F4491B0
:100C100050E00BE00E94B326200F311F8901422DC6
:100C2000372F262F3CD0839510E0FD01E80FF11FF0
:100C300004910023E1F6E6E00C94C4270E94B32758
:100C4000D801922F532E442E80E0442D352D082FAD
:100C5000000F292F200F622F732F242E2CE13FEF3E
:100C6000082F10E0AD01400F511F0E948E26402F2B
:100C700050E00BE00E94B326200F311F8901422D66
:100C8000372F262F0CD0839510E0AD01480F511F50
:100C90000E948E260023C9F6E6E00C94C4270E9429
:100CA000B127C801522EA32FB42F442403C000E063
:100CB00016DF43940BE0401608F043C06A2E7724F9
:100CC000042D600E771C40E150E083010E94DF2676
:100CD0000059FCDE40E150E083010E94DF26042F32
:100CE000005AF4DE652C772405E0600E771C40E1A5
:100CF00050E083010E94DF260E5EE8DE40E150E016
:100D000083010E94DF26042FE1DE042D10E0FC01A8
:100D1000E00FF11F049108DF662402C0E0DE639457
:100D200004E0601648F47724F301EE5DF94F00818A
:100D3000B130A1F70095F2CFBB2309F4B8CF0FEF84
:100D4000B7CFE8E00C94C2270E9478100023F1F09E
:100D500040E050E00E948E260C5F40E050E00E9490
:100D6000A82640E050E00E948E260C3F28F000E0CC
:100D700040E050E00E94A82640E050E00E948E260D
:100D80000093B30004E110E00E940C10089501D01C
:100D900008950E94B327A89744245524A0E0B0E00A
:100DA00080E040923E0D40923F0D40923C0D4092BB
:100DB0003D0D40922C0604EF11E020E030E00E944F
:100DC00096080091870C0023F1F44D9905C09CD042
:100DD00004E110E00E941D1004E0809F00913C0D92
:100DE00010913D0DFE01E00DF11D00831183009176
:100DF0003E0D10913F0DFE01E00DF11D02831383A6
:100E000083958A30F0F200008A3009F071C080E0EA
:100E10001DC0FE0104E0809FE00DF11D00811181E5
:100E2000248135810217130780F4408151810481A8
:100E30001581008311834483558342815381068148
:100E4000178102831383468357838395893008F380
:100E5000000089E027C09E0104E0809F200D311D25
:100E6000F90160817181890104501040F8014081CD
:100E7000518146175707A8F4AB0160817181F901D0
:100E800060837183F80140835183F901428153816A
:100E9000F80162817381F90162837383F8014283EF
:100EA00053838A958823B9F6000081E00EC0FE01C5
:100EB00004E0809FE00DF11D00811181400E511E64
:100EC00002811381A00FB11F8395893080F343E025
:100ED00082010E94C1260093400D1093410D43E012
:100EE0008D010E94C1260093420D1093430D08C04E
:100EF0004092400D4092410D4092420D4092430D70
:100F0000A896E6E00C94C4272F98469800ED12D0DE
:100F100029D01F7000933C0D10933D0D469A4698C2
:100F200000E908D01FD01F7000933E0D10933F0DB5
:100F3000469A08959A938A93902F2F9880E009C03B
:100F40002D98990F2F9A0AE010E00E941D102F98FB
:100F50008395883020F497FB9EF72D9AF2CF8991E4
:100F6000999108950E94B527A0E0B0E02F9880E005
:100F70000BC0AA0FBB1F1E9911962F9A01E010E01B
:100F80000E941D102F9883958C3098F38D01E4E01A
:100F90000C94C627BA93AA93FA93EA934A933A9386
:100FA0002A931A930A934FB70091CE00E9EBFAE027
:100FB0000A3A71F41685112359F400E0078701E01D
:100FC000068700E0008B0AEA008300E0018B30C056
:100FD0001685112369F1268530E0DF01A20FB31FCA
:100FE0000C930685083C08F0368706850530A9F481
:100FF0000581007C005859F0005459F0005419F054
:10100000005419F008C006E007C007E005C009E079
:1010100003C00DE001C004E10787068517850117AD
:1010200021F4368701E0008B03C00685039506870F
:101030004FBF09911991299139914991E991F991FC
:10104000A991B9911895FA93EA932A931A930A935E
:101050002FB700913B0D0023B9F000913B0D0A958D
:1010600000933B0D00913A0D10E0F801E45DF24F62
:1010700000810093CE0000913A0D039500933A0D44
:101080000E3011F410933A0D2FBF09911991299147
:10109000E991F991189500E00093B60004BD03E0D2
:1010A00005BD0DE806BD00E007BD08BD00916E005E
:1010B000016000936E00089501EC0093B00000936E
:1010C000B10040E050E00E948E260093B3000895E6
:1010D000082E80E0E9E6FCE08083818382838383BD
:1010E000E4E7FCE08083818382838383EDE6FCE098
:1010F0000083118322833383E8E7FCE0408351833C
:101100006283738301E00093720C80937D0C802DC9
:10111000089510E01093720C10937D0C013011F4BF
:101120005E980895002309F45E9A0895E3E8FCE0D0
:10113000008311832283338300E0EFE7FCE0008328
:101140000183028303830093870C01E00093890CE1
:101150000093880C0895EAEBFCE00083118322835E
:10116000338300E0E6EBFCE000830183028303832A
:101170000093BE0C01E00093C00C0093BF0C0895D7
:1011800040E010C050E008E110E00E94B326E9E31F
:10119000F7E0E00FF11F0689002311F001E0068B54
:1011A000548B4395433270F300E00E94C3120895BC
:1011B0008A932A970FE511E00E94532680E005C02C
:1011C0000AE010E00E940C108395883C20F40E94F5
:1011D000B4130331A9F704E611E00E94532602E399
:1011E00010E00E940C100DE611E00E94532602E36D
:1011F00010E00E940C1004E20C8301E30D8306E36F
:101200000E8302E30F8308870DE009878E010C5FD0
:101210001F4F0E94532645E250E00E949126017024
:10122000B9F01AD204C002E310E00E940C100E9430
:1012300078100023C1F704EF11E00E940C1045E282
:1012400050E00E9491260E7F45E250E00E94AC26BD
:1012500047E650E00E948E26002339F047E650E032
:101260000E948E26013009F09CC0E1E8FAE04FE2CE
:1012700050E016E020E00E9497270091820A09833F
:101280000091830A0A838E010F5F1F4F0E942D1069
:101290000093890A8E010F5F1F4F0E942D1047E3B4
:1012A00050E00E94A8260091840A005351F00A954C
:1012B00009F10A9579F10A9521F00A9509F452C0CD
:1012C000E4C000E34BE250E00E94A8264CE250E06C
:1012D0000E94A82601E44DE250E00E94A82608E3FF
:1012E0004EE250E00E94A82600E04BE650E00E944B
:1012F000A826CBC000E34BE250E00E94A8264CE2B7
:1013000050E00E94A82601E44DE250E00E94A82689
:1013100006E3E6CF00E34BE250E00E94A8264CE251
:1013200050E00E94A82608E34DE250E00E94A82663
:1013300000E34EE250E00E94A82600E046E350E0C1
:101340000E94A82601E04BE650E00E94A8260091EA
:10135000820A49E650E00E94A8260091830A4AE6E4
:1013600050E0C5CF00E34BE250E00E94A8264CE2DB
:1013700050E00E94A82601E44DE250E00E94A82619
:1013800006E34EE250E00E94A82600E04BE650E063
:101390000E94A82647E350E00E948E264AE350E0D0
:1013A000A6CF47E650E00E948E260230C9F500E342
:1013B0000093820A0093830A0093840A0093850AAB
:1013C0000093860A4DE250E00E948E2609834EE289
:1013D00050E00E948E260A838E010F5F1F4F0E94ED
:1013E0002D1008830881005861F0045251F00A95CD
:1013F00041F00A9521F0025011F00F5C39F400E041
:1014000001C001E04BE650E00E94A8260881055A81
:1014100029F00B5C11F00750C1F566CF01E065CFF4
:1014200060E001C063956031B0F424E730E0462FFE
:1014300050E007E010E00E94B326200F311FA90101
:101440000E948E26002371F3ECEDFAE002811381F5
:10145000006213830283ECEDFAE00281138105FD43
:1014600009C048E750E060E070E008E710E020E0E5
:1014700030E02EDE00E30093820A0093830A00939B
:10148000840A0093850A0093860A4CE650E00E9485
:101490009126017011F0469A01C0469800E020E0C4
:1014A000EAE8FCE0008301830283038307EE13E094
:1014B000EEE8FCE0008311832283238301E00093A4
:1014C000930C2A968991089542E350E00E948E265B
:1014D000005319F0035089F03AC000E046E350E0B1
:1014E0000E94A82601E042E550E00E94A82600E004
:1014F00041E550E00E94A8260FC000E046E350E01E
:101500000E94A82601E042E550E00E94A82641E59D
:1015100050E00E94A82600E045E550E00E94A82681
:1015200001E042E450E00E94A82600E043E450E0DD
:101530000E94A8264CE450E00E94A82601E043E562
:1015400050E00E94A82644E550E00E94A82643E30C
:1015500050E00E948E26005339F00A9539F00A9522
:1015600039F00A9539F00FC000E005C001E003C072
:1015700002E001C003E049E450E00E94A8264AE4EA
:1015800050E00E94A8260091860AE0E6F9E00C945B
:101590003F2700E04FE350E00E94A8260AE011C078
:1015A00000E04FE350E00E94A82640E450E00E9493
:1015B000A8260EE10BC000E04FE350E00E94A826F1
:1015C00001E040E450E00E94A82600E041E450E041
:1015D0000E94A826089500E04FE350E00E94A8264C
:1015E00002E0EFCF00E04FE350E00E94A82605E0C4
:1015F000E8CF00E04FE350E00E94A8260FE0E1CFE3
:1016000000E04FE350E00E94A82604E1DACF00E0BA
:101610004FE350E00E94A8260EE1D3CF00E04FE355
:1016200050E00E94A82608E240E450E00E94A8266C
:1016300000E041E450E00E94A826089522E330E053
:1016400003E211E00E94F513089522E330E00EE476
:1016500011E00E942B140895ECEDFAE00281138151
:101660000F7D1383028360E001C063956031A0F4B5
:1016700024E730E0462F50E007E010E00E94B32658
:10168000200F311FA9010E948E26002371F30281D1
:1016900013810062138302830091D70A1091D80A44
:1016A000012BA1F40091450D033071F402811381E7
:1016B00005FD0AC048E750E060E070E008E710E090
:1016C00020E030E005DD089500E023DD0895649713
:1016D00000918C0A002331F023E310918C0A02E37D
:1016E0000E94931441E150E02EE431E08E010D5F41
:1016F0001F4F0E9419289E0100918D0A0E945410CC
:1017000008810D8709810E8722E330E08E010D5F8D
:101710001F4F0E942B1422E330E003E211E00E94ED
:10172000F51300E0F6DC00E00093D70A0093D80A36
:10173000649608958ADF82DF8FDFE5EDFAE000E04E
:1017400004830283038308954CE650E00E949126AF
:10175000402F417099F401604CE650E00E94AC26A5
:1017600001E048E650E00E94A8260093460DECED0B
:10177000FAE00081118101601183008308954A928B
:10178000BA93AA939A938A93FA93EA933A922A92F3
:101790001A920A927A936A935A934A933A932A93A3
:1017A0001A930A934FB60DE806BDAAEEBBE000916E
:1017B000460C0130E1F4FD01FD9606891789208D64
:1017C000318D0F5F1F4F2F4F3F4FFD01FD96068B51
:1017D000178B208F318F003D47E0140740E024072E
:1017E000340728F001E00093450C4093460C00912B
:1017F000510C013009F5FD01FD9601A112A123A1B3
:1018000034A10F5F1F4F2F4F3F4FFD01FD9601A3E6
:1018100012A323A334A3E7E2FDE04081518162815A
:101820007381041715072607370730F001E000938E
:10183000500C00E00093510C0091300C013021F568
:10184000FD01FD9600811181228133810F5F1F4FC1
:101850002F4F3F4FFD01FD96008311832283338379
:10186000003941E0140740E02407340768F0409352
:10187000240D4093250D01E000932F0CFD01FD96F2
:1018800040834183428343830091670C013071F4AC
:10189000EEE5FCE000811181228133810F5F1F4F53
:1018A0002F4F3F4F00831183228333830091720CAB
:1018B000013061F55E98E9E6FCE00081118122814A
:1018C00033810F5F1F4F2F4F3F4F008311832283C0
:1018D0003383E7E6FCE00281138124813581468170
:1018E000578160857185041715072607370770F043
:1018F00001E00093710C00E00093720C01E0009392
:101900007D0C00E0058706870787008B00917D0C22
:10191000013061F55E9AE4E7FCE0008111812281EB
:1019200033810F5F1F4F2F4F3F4F0083118322835F
:101930003383E7E6FCE005851685278530894189F4
:10194000528963897489041715072607370770F0D1
:1019500001E000937C0C00E000937D0C01E000931B
:10196000720C00E002830383048305830091A90CB9
:10197000013039F5E0EAFCE00081118122813381F8
:101980000F5F1F4F2F4F3F4F0083118322833383FD
:10199000E7E6FCE001AD12AD23AD34ADE4EAFCE0D6
:1019A000408151816281738104171507260737072B
:1019B00040F001E00093A80C00E00093A90C0E9405
:1019C00089080091CA0C013021F5E1ECFCE00081AE
:1019D0001181228133810F5F1F4F2F4F3F4F0083B3
:1019E000118322833383E4EAFCE0058D168D278D75
:1019F00030A141A152A163A174A1041715072607C4
:101A0000370738F001E00093C90C00E00093CA0CDE
:101A1000469A0091D50C0130E9F4E4EAFCE000A517
:101A200011A522A533A50F5F1F4F2F4F3F4F00A7D2
:101A300011A722A733A744A555A566A577A5041726
:101A400015072607370730F001E00093D40C00E0BB
:101A50000093D50C0091880C0130E9F4E7E6FCE036
:101A6000008D118D228D338D0F5F1F4F2F4F3F4FF4
:101A7000008F118F228F338F448D558D668D778D1A
:101A8000041715072607370730F001E00093870C8D
:101A900000E00093880C0091BF0C0130E9F4E4EA07
:101AA000FCE002891389248935890F5F1F4F2F4F6E
:101AB0003F4F028B138B248B358B46895789608D62
:101AC000718D041715072607370730F001E00093E2
:101AD000BE0C00E00093BF0C0091F60C0130E9F45D
:101AE000EDEEFCE000811181228133810F5F1F4FF9
:101AF0002F4F3F4F008311832283338344815581CD
:101B000066817781041715072607370730F001E053
:101B10000093F50C00E00093F60C0091170D0130D6
:101B2000E9F4EDEEFCE001A112A123A134A10F5FC5
:101B30001F4F2F4F3F4F01A312A323A334A345A14F
:101B400056A167A170A5041715072607370730F0BF
:101B500001E00093160D00E00093170D0091B40C06
:101B60000130F9F5E4EAFCE0078110852185328532
:101B70000F5F1F4F2F4F3F4F0783108721873287FB
:101B8000438554856585768504171507260737072D
:101B900040F101E00093B30C00E00093B40C00911D
:101BA000D70A1091D80A083020E9120750F00091A6
:101BB000D70A1091D80A0231120718F40E94670B55
:101BC00010C00091D70A1091D80A0330120748F0CC
:101BD0000091D70A1091D80A0730120710F40E941A
:101BE0009A0B00919E0C0130E9F4E7E6FCE006A5B3
:101BF00017A520A931A90F5F1F4F2F4F3F4F06A7F1
:101C000017A720AB31AB42A953A964A975A9041742
:101C100015072607370730F001E000939D0C00E020
:101C200000939E0C0091010D0130E9F4EDEEFCE013
:101C300003851485258536850F5F1F4F2F4F3F4F36
:101C4000038714872587368747855089618972897C
:101C5000041715072607370730F001E00093000D41
:101C600000E00093010D0091220D0130E9F4EDEE4A
:101C7000FCE004A515A526A537A50F5F1F4F2F4F24
:101C80003F4F04A715A726A737A740A951A962A9C6
:101C900073A9041715072607370730F001E00093F2
:101CA000210D00E00093220D00913B0C013009F55D
:101CB000FD01FD9603851485258536850F5F1F4F31
:101CC0002F4F3F4FFD01FD960387148725873687E9
:101CD000FD01FD96478550896189728904171507B2
:101CE0002607370730F001E000933A0C00E000933C
:101CF0003B0CFD01068104FF06C0058516850F5FBC
:101D00001F4F05871687068105FF06C007851089C6
:101D10000F5F1F4F0787108B03851485012BA1F0E0
:101D200003851485015010400387148700E0009359
:101D3000240D0093250D0093260D00932B0DE8E54F
:101D4000FDE002810F7B028300913D0B10913E0B61
:101D5000012B41F0E3E1FBE002A513A50150104087
:101D600002A713A700913C0B002329F000913C0B24
:101D70000A9500933C0B0091230C013001F5FD0105
:101D800000A911A922A933A90F5F1F4F2F4F3F4F61
:101D900000AB11AB22AB33AB0C3241E0140740E097
:101DA0002407340760F001E00093220C4093230CD9
:101DB0004093240CE8E5FDE001810F7B0183009155
:101DC000180C0130D1F4FD0105A116A127A130A501
:101DD0000F5F1F4F2F4F3F4F05A316A327A330A719
:101DE0004481558160E0041715072607360728F05F
:101DF00001E00093170C6093180C00910C0D01305A
:101E0000E9F4EDEEFCE006891789208D318D0F5F36
:101E10001F4F2F4F3F4F068B178B208F318F428DD7
:101E2000538D648D758D041715072607370730F01D
:101E300001E000930B0D00E000930C0DEBECFAE0D9
:101E4000058102FF1BC00091CE0A1091CF0A012B21
:101E5000A9F00581077F058303811481015010409B
:101E6000038314830091CE0A1091CF0A012B31F421
:101E70000091D00A0B7F08600093D00AFD0183AD6A
:101E800094AD019683AF94AF883E03E0900708F4C9
:101E900080C000E010E003AF04AF0091F40B00231A
:101EA00019F002850A950287078100FD0BC0808525
:101EB00091850196808791878530910718F0078179
:101EC0000160078300910D0C0130B1F4028D138D78
:101ED000248D358D0150104020403040028F138FEB
:101EE000248F358F012B022B032B31F401E000935B
:101EF0000C0C00E000930D0C0091EA0B002319F08C
:101F00000C910A950C9301811281012B31F0018112
:101F100012810150104001831283068106FF06C022
:101F2000018912890F5F1F4F018B128B068107FFFA
:101F30000CC003891489258936890F5F1F4F2F4FE5
:101F40003F4F038B148B258B368BE4E5FDE000813E
:101F5000118122813381012B022B032B61F000813F
:101F60001181228133810150104020403040008394
:101F700011832283338300913F0B1091400B012B7F
:101F800041F0E3E1FBE004A515A50150104004A7D2
:101F900015A74FBE099119912991399149915991EC
:101FA000699179910990199029903990E991F99165
:101FB00089919991A991B991499018951A930A9389
:101FC0001FB7009137070095009337070091370737
:101FD000002311F02B9A01C02B980FEB0093B20055
:101FE0001FBF0991199118950FEF01B904B907B9ED
:101FF0000AB900E002B905B908B90BB924982C9ABE
:102000005098589A5198599A2698559854982E9ABB
:102010005D9A5C9A419A0895AC0180E090E008C016
:1020200022E337E021503040E9F700C0000001967C
:1020300080179107A8F3CA010895392F482F80E02F
:1020400090E005C028E12A95F1F70000019680177D
:102050009107C0F3842F932F0895F8011081113454
:1020600030F01081173418F40081075307C0108135
:10207000103330F010811A3318F400810295007F7C
:102080001181113438F01181173420F41181175364
:10209000010F08951181103330F011811A3318F4B3
:1020A00011811053010F08952297102F12951F7060
:1020B000188318811A30188110F4105D01C0195C62
:1020C00018830F70098309810A30098110F4005DBB
:1020D00001C0095C09830881F901008309812F5F30
:1020E0003F4FF901008300E010E022960895089523
:1020F0001C9902C001E0089500E00895189504B706
:10210000077F04BF0091600008610093600000E059
:1021100000936000089523974BE250E00E948E26C2
:1021200000934C0D4CE250E00E948E26102F00933D
:102130004D0D4DE250E00E948E26202F00934E0D53
:102140004EE250E00E948E26302F00934F0D4BE25E
:1021500050E00E948E26602F47E250E00E948E26BB
:10216000601799F448E250E00E948E26101769F437
:1021700049E250E00E948E26201739F44AE250E0EE
:102180000E948E26301709F443C0A7D047E650E0DE
:102190000E948E26002331F047E650E00E948E26F2
:1021A0000130E9F440E350E00E948E26088341E3C9
:1021B00050E00E948E26098300E00A838E010E946F
:1021C0002D1047E350E00E94A82647E350E00E940C
:1021D0008E264AE350E00E94A8260E94640A0091DD
:1021E0004C0D47E250E00E94A82600914D0D48E2B8
:1021F00050E00E94A82600914E0D49E250E00E9456
:10220000A82600914F0D4AE250E00E94A82621C066
:1022100047E650E00E948E26002331F047E650E06A
:102220000E948E260130A9F440E350E00E948E26E1
:10223000088341E350E00E948E26098300E00A8370
:102240008E010E942D1047E350E00E94A8260E94B4
:10225000640AE7E8FAE045E350E012E320E00E9478
:102260009727E5E4FDE047E650E017E00E94972756
:1022700048E650E00E948E26ECEDFAE000FB00817B
:10228000118100F91183008304E100932F0B209347
:10229000300B4EED50E00E9491260093D70A109328
:1022A000D80A40EE50E00E949626E0E5FDE000836B
:1022B0001183228333830091D70A1091D80A053401
:1022C00020E9120721F404EF11E00E947710009139
:1022D00030071091310723960895ECE4FDE000816A
:1022E000003371F40181003359F40281013441F467
:1022F0000381083329F445E350E0E0E2F5E010C043
:102300000081003399F40181003381F402810134AA
:1023100069F40381063351F445E350E0E2E5F5E06A
:1023200012E320E00E94A02745D0089500810033E9
:1023300071F40181003359F40281073341F40381C0
:10234000073329F445E350E0E4E8F5E0E9CF008104
:10235000003371F40181003359F40281083341F4F0
:102360000381003329F445E350E0E6EBF5E0D8CFF4
:102370000081003349F40181003331F402810134DA
:1023800019F40381043379F30081003391F401815E
:10239000003379F40281013461F40381053349F497
:1023A00045E350E0E8EEF5E012E320E00E94A027CC
:1023B00001D0089500E04AE350E00E94A8264FE3D0
:1023C00050E00E94A8260FE040E450E00E94A826BA
:1023D00000E041E450E00E94A82603E049E450E018
:1023E0000E94A82603E24BE450E00E94A8264BE698
:1023F00050E00E948E26002329F001E04BE450E0DB
:102400000E94A82600E04CE450E00E94A82604E6C2
:102410004EE450E00E94A8260FEF4FE450E00E94E7
:10242000A82600E041E550E00E94A82602E042E52F
:1024300050E00E94A82601E043E550E00E94A82653
:1024400044E550E00E94A82645E550E00E94A826F9
:1024500000E047E550E00E94A826089505B1006A13
:1024600005B904B1006A04B9389A40983998419A7C
:1024700001E00DBD0CE50CBD08950CB50F7B0CBD46
:1024800008950EBD0DB5102F17FFFCCF0EB50895A2
:10249000409A409807E5F5DF00E0F3DF202F28732E
:1024A00026952695269530E0F901E750FB4F1491CB
:1024B00010932F0612E0219FF001E751FB4F259169
:1024C000349120932D0630932E0608950E94B6274E
:1024D000C901A12F409A4098013059F404E8D1DF96
:1024E00000E0CFDF8C01012FCCDF082FCADF0A2FDD
:1024F000C8DFE3E00C94C7270E94B627C901409AC1
:102500004098013091F403E8BCDFA0912F0640E130
:102510004A1B8C010E94C126B4DFA8504A2F8C01AF
:102520000E94BB26AEDF00E0ACDF409A4098B0DFEF
:1025300007FBEEF7E3E00C94C7270E94B3272801BE
:10254000C901409A409808E69CDFA0912F0640E11F
:102550004A1B82010E94C12694DFA8504A2F8201A3
:102560000E94BB269C01232F020F8BDF082F89DFDF
:1025700000E087DF00E085DF00E083DF00E081DF4F
:10258000E6E00C94C42700E007C020E010E0F8016A
:10259000E95FF44F208303950830B8F300E007C0EB
:1025A00020E010E0F801E15FF44F20830395043050
:1025B000B8F300E007C020E010E0F801E150F54F6B
:1025C000208303950830B8F300E007C020E010E056
:1025D000F801E251F54F208303950031B8F30895D7
:1025E0009A938A9324970FEF088380E001C0839524
:1025F000833268F4482F50E008E110E00E94B326CF
:10260000F801E75CF84F0689002389F34883488185
:1026100050E008E110E00E94B326F801E75CF84FB3
:102620000689002309F490C008810F3F09F48CC08B
:102630002AE337E0488108E110E00E94B326200F2A
:10264000311F89010E942D10005009F47DC00A95A8
:1026500009F47AC0065009F477C0005119F00A95C0
:10266000A1F165C080E013C0ECE3F7E090E0E80F73
:10267000F91F488150E008E110E00E94B326E00F06
:10268000F11F0081FC01E95FF44F008383958830DE
:1026900058F380E0843008F057C002E0809FE7E004
:1026A000FBE0E00DF11D0081098301810A8300E058
:1026B0000B838E010F5F1F4F0E942D1090E0FC01D5
:1026C000E15FF44F00838395E5CF80E013C0ECE336
:1026D000F7E090E0E80FF91F488150E008E110E0D2
:1026E0000E94B326E00FF11F0081FC01E251F54F7B
:1026F00000838395803158F380E0883028F502E02C
:10270000809FEEEEFAE0E00DF11D0081098301816A
:102710000A8300E00B838E010F5F1F4F0E942D1074
:1027200090E0FC01E150F54F00838395E6CF20E077
:10273000488150E008E110E00E94B326F801E75C10
:10274000F84F268B01E00CC020E0488150E008E102
:1027500010E00E94B326F801E75CF84F268B00E0FA
:1027600024968991999108950E94B52780E001C02F
:1027700083958332B0F5482F50E008E110E00E94C5
:10278000B326A9E3B7E0A00FB11FFD01068900231E
:1027900079F3568B8D010F5F1F4F0E942D10005053
:1027A00059F00A95D1F0065049F00A9549F00B50BE
:1027B000B1F00F5091F0DCCF02E014C007E012C07E
:1027C0008D010D5F1F4F0E942D10023031F01396C6
:1027D0008D010E942D10033059F601E003C003E182
:1027E00001C000E0E4E00C94C6270E94B5272D97B5
:1027F000D90124E2288320E3298324E32A8380E08B
:102800000AC090E0F801E80FF91F2081FE01E80FEF
:10281000F91F238383958830A0F30DE00B8700E038
:102820000C878E010E9453268D010E940C1080E0BF
:1028300004C08E010E94532683958A3F40F40E9473
:10284000B4130730B1F30130A1F30230A9F72D968C
:10285000E4E00C94C6270E94B5276897D90124E2CA
:102860002B8320E32C8326E32D8380E00BC090E0B4
:10287000F801E80FF91F2081FE013396E80FF91FD8
:1028800023838395803198F30DE00E8B0091450DE5
:10289000033019F400E3088718C00091450D023099
:1028A0000091F50A31F40333A9F39E014BE350E0A4
:1028B00005C0033379F39E0147E350E00E948E2662
:1028C0000E94541008810887098109870091490DE9
:1028D000013031F40091470D08870091480D02C086
:1028E00000E30887098700E00F8B8E010D5F1F4F03
:1028F0000E9453268D010E940C1080E006C08E01BC
:102900000D5F1F4F0E94532683958A3F40F40E941B
:10291000B4130730A1F3013091F30230A9F76896A0
:10292000E4E00C94C6270E94B5276497302F612FEE
:10293000822FDE011396E1E0F5E08D0141E150E0E8
:102940000E948427333321F404E3098703E309C099
:10295000323321F404E3098702E303C003E3098768
:1029600004E30A879E01062F0E94541008810D87F8
:1029700009810E878A8B22E330E08E010D5F1F4FA5
:102980000E942B146496E4E00C94C6273B2F6A2F18
:1029900040E008C0DF01A00FB51F5C930395043130
:1029A000C8F34395433270F450E008E110E00E9410
:1029B000B326E9E3F7E0E00FF11F00E0558B568BFB
:1029C000578BEDCFE9EBFAE0048D158D0E7F158F57
:1029D000048F048D158D0D7F158F048F048D158D3B
:1029E0000B7F158F048F00E0018B20E0ADE3BCE08E
:1029F0000D930D930D930C930093450C0093460C8F
:102A00000093470CA2E3BCE00D930D930D930C9340
:102A100000933A0C00933B0C00933C0C0093290B61
:102A200003ABAEE5BCE00D930D930D930C930093B7
:102A3000660C0093670C0093680C01AB02AB048D2D
:102A4000158D0E7F158F048F048D158D0D7F158FBD
:102A5000048F048D158D0B7F158F048F048D158DBC
:102A6000077E048F158F268F278F20A303A114A123
:102A70000E7F14A303A303A114A10D7F14A303A32A
:102A800003A114A1046014A303A303A114A1077F4D
:102A900014A303A303A114A10F7B14A303A305A1F3
:102AA00016A10D7F16A305A324AB05A116A10F77D0
:102AB00016A305A305A116A10B7F16A305A305A1C7
:102AC00016A1077F16A305A305A116A10F7E16A3C5
:102AD00005A32093F20B2093F30BA1EFBBE00C9125
:102AE0000E7F0C9320932A0B01E00093D40C0789EE
:102AF0000D7F078B018D0F77018F05A116A10F7B2D
:102B000016A305A301E00093160D4CE650E00E94C9
:102B1000912600FB03A114A100F914A303A3A62F7F
:102B2000B32F089501E000935D0DA8950E947F10DA
:102B30000E94F40F00E00E9489080E94C6140E94BF
:102B40005F260E940A160E944B080E945C080E94A1
:102B50002B170E94A40B0E94D8080E948B10789417
:102B60000E9419050E9437170E94541C0E942E12C1
:102B7000EDE8F1E006E210E00E948F2700E00E94FD
:102B8000DA240E943D1208C026E831E00DEF11E082
:102B90000E9444220E94A4064D99FCCF0E94C706C1
:102BA0000E94EB18005029F00A9541F00A9561F354
:102BB000F1CF0E94AC050E94781CECCF40E026E8E3
:102BC00031E003EB11E00E948E2041E020E831E08B
:102BD00001EC11E00E948E2042E023E831E00EEC8F
:102BE00011E00E948E2043E026E731E00BED11E07A
:102BF0000E948E2044E02DE731E00CEE11E00E94AF
:102C00008E200E94A31DC6CF0A9301E000935E0DA3
:102C10000991189500E00093C80008E00093C900EE
:102C200006E00093CA0000E00093CD000FE200939D
:102C3000CC0008952091C800322F35FFFBCFF8015A
:102C400020812093CE000F5F1F4FF80120812223A7
:102C500089F708952091C800322F35FFFBCFF80186
:102C600024912093CE000F5F1F4FF801249122235F
:102C700089F708950E94AF272D97D8012A013B01BB
:102C80008F88988C00918A01088300918B010983B9
:102C900000E00A838E010E942D10802F00E00C8737
:102CA000F40100810B8301810C8300E20D83F301A9
:102CB00000810E8301810F830281088703810987C8
:102CC00004810A8705810B8709E616E0C3DF00E16E
:102CD00012E0B0DF082F42D008E112E0ABDF8D0137
:102CE000A9DF0EE118E0B6DF082F38D005E418E0C0
:102CF000B1DF8D019FDF0FE618E0ACDF082F2ED08B
:102D000002E212E097DF820195DF09E212E092DF32
:102D10008E010D5F1F4F8EDF08E112E08BDF8D010A
:102D200089DF0AE918E096DF8D0184DF04EC18E002
:102D300091DF8E010D5F1F4F7DDF0BEE18E08ADF04
:102D4000082F0CD001E119E085DF820173DF07E372
:102D500019E080DF2D96ECE00C94C02710918801DB
:102D6000113311F411E001C012E01230C9F5005224
:102D7000A9F00A95B1F00A95C1F00A95C9F00A9533
:102D8000D1F00A95D9F00A95E1F00A95E9F00A9593
:102D9000F1F00A95F9F0075001F1089504E312E00B
:102DA00002C00BE312E046DF089502E412E0FBCF1D
:102DB00009E412E0F8CF00E512E0F5CF07E512E0F4
:102DC000F2CF0EE512E0EFCF05E612E0ECCF0CE615
:102DD00012E0E9CF03E712E0E6CF0AE712E0E3CF23
:102DE0001130C1F50052A9F00A95B1F00A95B9F079
:102DF0000A95C1F00A95C9F00A95D1F00A95D9F063
:102E00000A95E1F00A95E9F00A95F1F00750F9F01A
:102E1000089501E812E0C7CF0AE812E0C4CF03E941
:102E200012E0C1CF0CE912E0BECF05EA12E0BBCF41
:102E30000EEA12E0B8CF07EB12E0B5CF00EC12E0DB
:102E4000B2CF09EC12E0AFCF02ED12E0ACCF0BED48
:102E500012E0F0DE089500E0009369000DBB00E28F
:102E60000093730008E0009368000BBB08950E9474
:102E7000A9272197E5E0F6E0C480D580E680F780B9
:102E80000081118122813381C01AD10AE20AF30A3A
:102E90004EE150E060E070E0860197010E94F32669
:102EA00040EA0E941327480159010AE6800E9E1E3F
:102EB000AE1EBE1EEDEFF5E080829182A282B3824B
:102EC00042E250E060E070E0860197010E94F32644
:102ED00040EA0E941327C801D90186599040A040BA
:102EE000B040E1E0F6E080839183A283B38300E009
:102EF00070C0088110E044E00E94BB2698010FE5F5
:102F0000402E0DE0502E420E511E0DEF602E04E0BB
:102F1000702E620E711EF3014081518162817381B6
:102F20004D5F5F4F6F4F7F4F860197010E94F326E1
:102F300040EA50E060E070E00E941327A401B50170
:102F40007695679557954795041B150B260B370B00
:102F5000F2010083118322833383F301448155817D
:102F6000668177814B5F5F4F6F4F7F4F860197017F
:102F70000E94F32640EA50E060E070E00E941327D0
:102F8000AC01BD017695679557954795041B150BC8
:102F9000260B370BF20104831583268337830081C8
:102FA000118122813381080D191D2A1D3B1D0087C7
:102FB0001187228733870481158126813781080F85
:102FC000191F2A1F3B1F048715872687378708810B
:102FD000039508830881003108F48BCF0000219607
:102FE000E0E10C94BA270E94B1270091400D1091A6
:102FF000410D20E030E0A5E0B6E04D915D916D918E
:103000007C911397401751076207720778F5FD010D
:103010004481558166817781041715072607370794
:1030200028F50091420D1091430D0D901D902D90AB
:103030003C9013970016110622063206B8F40417C6
:1030400015072607370790F48A012091400D30912B
:10305000410D021B130B008711870091420D109147
:10306000430D401B510B42875387000050E001C0C5
:103070005395FD0100841184222433242FE53DE083
:103080005031A0F5052F10E044E00E94BB26200F30
:10309000311FF90100811181228133810015110551
:1030A0002205320528F70085118522853385001613
:1030B000110622063306E0F61A960D911C911B9715
:1030C00020E030E00480158026803780001611064D
:1030D0002206320668F60484158426843784001597
:1030E00011052205330520F6052F72C0EFE2FEE040
:1030F00040815181628173814015510562057205DD
:1031000070F44485558566857785FD014284538436
:10311000441555056205720510F400E159C0EFE24F
:10312000FEE0408D518D628D738D041615062606C6
:10313000370670F4448D558D668D778DFD01428480
:103140005384441555056205720510F401E140C031
:10315000F90140815181628173814084518462848C
:103160007384440D551D661D771D7695679557959B
:103170004795401551056205720548F5EFE2FEE0FE
:1031800040A151A162A173A140A451A462A473A45F
:10319000440D551D661D771D769567955795479586
:1031A000041615062606370690F444A555A566A50F
:1031B00077A5FD0102851385401751076205720549
:1031C00030F40091440D023011F403E101C00FEF1F
:1031D000E8E00C94C2270091400D1091410D20E0D1
:1031E00030E0E5E0F6E04081518162817381401773
:1031F00051076207720768F54481558166817781BE
:10320000041715072607370720F50091420D109186
:10321000430D0080118022803380001611062206A3
:103220003206B8F4041715072607370790F48A0109
:103230002091400D3091410D021B130B0087118727
:103240000091420D1091430D401B510B4287538753
:103250000000028513850D3122E0120728F008389E
:10326000120710F400E00895013623E0120728F059
:103270000C3C120710F401E00895053A24E012070F
:1032800030F0003125E0120710F402E008950FEF4E
:10329000089522E32093180649E050E0980109E1DF
:1032A00016E00E94192824EF31E001E116E00E94A7
:1032B0002B1405E30093180628EC30E001E116E03A
:1032C0000E942B1408959A938A93C901EAE7F9E0C2
:1032D0000C943F2741E038E724E104EE12E00E941D
:1032E000BE058C010E940C1040E038E724E104EE9A
:1032F00012E01FC141E030E32AE006EE12E00E9436
:10330000BE058C010E940C1040E030E32AE006EE7E
:1033100012E00FC141E030E324E108EE12E00E9428
:10332000BE058C010E940C1040E030E324E108EE61
:1033300012E0FFC041E030E32EE10AEE12E00E940D
:10334000BE058C010E940C1040E030E32EE10AEE35
:1033500012E0EFC041E038E42AE00CEE12E00E94F7
:10336000BE058C010E940C1040E038E42AE00CEE0F
:1033700012E0DFC041E038E424E10EEE12E00E94EA
:10338000BE058C010E940C1040E038E424E10EEEF2
:1033900012E0CFC041E038E42EE100EF12E00E94DD
:1033A000BE058C010E940C1040E038E42EE100EFD5
:1033B00012E0BFC041E030E62AE002EF12E00E94D6
:1033C000BE058C010E940C1040E030E62AE002EFBE
:1033D00012E0AFC041E030E624E104EF12E00E94C9
:1033E000BE058C010E940C1040E030E624E104EFA1
:1033F00012E09FC041E030E62EE106EF12E00E94AD
:10340000BE058C010E940C1040E030E62EE106EF74
:1034100012E08FC041E030E328E208EF12E00E94A2
:10342000BE058C010E940C1040E030E328E208EF5A
:1034300012E07FC041E038E428E20AEF12E00E9487
:10344000BE058C010E940C1040E038E428E20AEF2F
:1034500012E06FC041E030E628E20CEF12E00E947B
:10346000BE058C010E940C1040E030E628E20CEF13
:1034700012E05FC041E038E728E20EEF12E00E9460
:10348000BE058C010E940C1040E038E728E20EEFE8
:1034900012E04FC041E038E72AE000E013E00E946C
:1034A000BE058C010E940C1040E038E72AE000E0E5
:1034B00013E03FC041E038E72EE102E013E00E9454
:1034C000BE058C010E940C1040E038E72EE102E0BE
:1034D00013E02FC041E03CE824E204E013E00E9446
:1034E000BE058C010E940C1040E03CE824E204E0A0
:1034F00013E01FC041E03CE822E00CE013E00E9432
:10350000BE058C010E940C1040E03CE822E00CE07B
:1035100013E00FC041E03CE826E103E113E00E9424
:10352000BE058C010E940C1040E03CE826E103E15E
:1035300013E00E94BE058991999108959A938A9308
:10354000C901E8EAF9E00C943F2741E038E724E1BB
:1035500004EE12E00E94BE058C010E940C1040E0B7
:1035600038E724E104EE12E0BFC041E030E32AE096
:1035700006EE12E00E94BE058C010E940C1040E095
:1035800030E32AE006EE12E0AFC041E030E324E190
:1035900008EE12E00E94BE058C010E940C1040E073
:1035A00030E324E108EE12E09FC041E030E32EE179
:1035B0000AEE12E00E94BE058C010E940C1040E051
:1035C00030E32EE10AEE12E08FC041E038E42AE059
:1035D0000CEE12E00E94BE058C010E940C1040E02F
:1035E00038E42AE00CEE12E07FC041E038E424E148
:1035F0000EEE12E00E94BE058C010E940C1040E00D
:1036000038E424E10EEE12E06FC041E038E42EE130
:1036100000EF12E00E94BE058C010E940C1040E0F9
:1036200038E42EE100EF12E05FC041E030E62AE02E
:1036300002EF12E00E94BE058C010E940C1040E0D7
:1036400030E62AE002EF12E04FC041E030E624E12C
:1036500004EF12E00E94BE058C010E940C1040E0B5
:1036600030E624E104EF12E03FC041E030E62EE115
:1036700006EF12E00E94BE058C010E940C1040E093
:1036800030E62EE106EF12E02FC041E03CE824E2F4
:1036900004E013E00E94BE058C010E940C1040E083
:1036A0003CE824E204E013E01FC041E03CE822E0F3
:1036B0000CE013E00E94BE058C010E940C1040E05B
:1036C0003CE822E00CE013E00FC041E03CE826E1DA
:1036D00003E113E00E94BE058C010E940C1040E043
:1036E0003CE826E103E113E00E94BE05899199912F
:1036F00008959A938A93C901E4EDF9E00C943F2769
:1037000041E038E724E104EE12E00E94BE058C019E
:103710000E940C1040E038E724E104EE12E0BFC044
:1037200041E030E32AE006EE12E00E94BE058C0183
:103730000E940C1040E030E32AE006EE12E0AFC039
:1037400041E030E324E108EE12E00E94BE058C0166
:103750000E940C1040E030E324E108EE12E09FC02C
:1037600041E030E32EE10AEE12E00E94BE058C013A
:103770000E940C1040E030E32EE10AEE12E08FC010
:1037800041E038E42AE00CEE12E00E94BE058C0114
:103790000E940C1040E038E42AE00CEE12E07FC0FA
:1037A00041E038E424E10EEE12E00E94BE058C01F7
:1037B0000E940C1040E038E424E10EEE12E06FC0ED
:1037C00041E038E42EE100EF12E00E94BE058C01DA
:1037D0000E940C1040E038E42EE100EF12E05FC0E0
:1037E00041E030E62AE002EF12E00E94BE058C01C3
:1037F0000E940C1040E030E62AE002EF12E04FC0D9
:1038000041E030E624E104EF12E00E94BE058C01A5
:103810000E940C1040E030E624E104EF12E03FC0CB
:1038200041E030E62EE106EF12E00E94BE058C0179
:103830000E940C1040E030E62EE106EF12E02FC0AF
:1038400041E03CE824E208E113E00E94BE058C015F
:103850000E940C1040E03CE824E208E113E01FC0A5
:1038600041E03CE822E00CE013E00E94BE058C0140
:103870000E940C1040E03CE822E00CE013E00FC096
:1038800041E03CE826E103E113E00E94BE058C0123
:103890000E940C1040E03CE826E103E113E00E94A6
:1038A000BE0589919991089540E030E02CE107ED43
:1038B00014E00E94BE0540E03CE02CE103EE14E081
:1038C0000E94BE0540E032E328E00BE216E00E94D1
:1038D000EC0540E030E52AE00FE316E00E94EC053D
:1038E00040E03EE628E000E516E00E94EC05089581
:1038F0000E94B527649790E088E19E012D5F3F4FBD
:103900008901EAE1F6E041E150E00E94842734E0D9
:1039100028E00BE216E00E94EC0540E038E120E0F0
:103920000FE113E00E94BE0540E030E32AE009E227
:1039300013E00E94BE0540E038E42AE00AE313E009
:103940000E94BE0540E030E62AE00BE413E00E944E
:10395000BE0540E038E72AE00CE513E00E94BE0512
:1039600040E03CE822E00CE013E00E94BE0540E0AD
:103970003CE824E204E013E00E94BE0504EF11E0FD
:1039800020E030E00E94AB0800E300933207009390
:10399000330700933407009335079093360706C02A
:1039A00006EA13E00E94BE050E94A4064D99B6C027
:1039B0000E94C70618DBA02FB0E024E630E0BEDD91
:1039C000AA30BB0738F0A031BB0721F0A131BB07FB
:1039D00009F0A4C0AA30BB0738F5883108F49EC0AE
:1039E000803208F09BC00A2F005D0883B98340E055
:1039F00038E1282F8E010E94BE05082F085139F0AA
:103A0000025041F0025049F0025051F00BC0A09317
:103A1000320708C0A093330705C0A093340702C043
:103A2000A09335078E5F7AC0A031BB0709F069C04B
:103A3000803209F073C0EFE5FEE04091320750E0BC
:103A400008EE13E00E94B32698014091330704E684
:103A500010E00E94B326200F311F409134070AE086
:103A600010E00E94B326200F311F00913507200F70
:103A70003B1F2083318311811093610E00810093DD
:103A8000620E20ED37E00DE613E00E942B1441E1B9
:103A900050E02EE733E08E010D5F1F4F0E94192882
:103AA0009E010091610E0E94541008810F870981C8
:103AB000088B9E010091620E0E9454100881098BB0
:103AC00009810A8B28EC30E08E010D5F1F4F0E94A8
:103AD0002B1428EC30E00FE813E00E942B1488E14F
:103AE000B0933207B0933307B0933407B0933507E0
:103AF00040E038E128E100EA13E00E94BE05000042
:103B00000DC0A131BB0751F4893140F040E038E1EC
:103B1000282F06EA13E00E94BE0582500091BE0CD9
:103B2000013009F041CF909504EF11E020E030E042
:103B30000E94AB08992340E038E1282F09F430CFE8
:103B400008EA13E02FCF0E94B327AB9755249E01BC
:103B5000255F3F4F8901E3E6F6E046E050E00E9432
:103B600084274AA702E00093440D009180010B874F
:103B7000009181010C87009183010E8700918401DF
:103B80000F8734E02CE00AEA13E00E94BE0540E013
:103B900038E120E00BEB13E00E94BE0540E034E288
:103BA00020E005EC13E00E94BE0540E030E32AE08F
:103BB0000FEC13E00E94BE0540E038E42AE000EE7E
:103BC00013E00E94BE0540E030E62AE001EF13E07A
:103BD0000E94BE0540E038E72AE002E014E00E94BF
:103BE000BE0540E03CE822E00CE013E00E94BE0588
:103BF00040E03CE826E103E113E00E94BE0540E01E
:103C00003CE824E204E013E00E94BE0504EF11E06A
:103C100020E030E00E94AB0800E040E250E00E946B
:103C2000A82620E00CC048E150E0420F551D0E943C
:103C30008E26FE013296E20FF51D00832395283073
:103C400090F340E038E128E108E110E00E941E0610
:103C500008E2402E08C006EA13E00E94BE050E945A
:103C6000C0080E94A4060E94F0120023E1F7009110
:103C7000D70A1091D80AE0E0FAE00C9443278E01AD
:103C80000E5F1F4F06DB0FE410E90093D70A109375
:103C9000D80A37C10091FF0A003D09F032C10091F6
:103CA000020B043009F02DC148E050E09E012E5D6A
:103CB0003F4F06EF1AE00E94192800E00AA79E0174
:103CC0002E5F3F4F8E010E5D1F4F0E94F927012B83
:103CD00009F417C100E5D8CF08EC10E00E940C10E1
:103CE00041E150E023E134E08E010F5E1F4F0E945E
:103CF000192846E050E026E831E08E01055E1F4FAE
:103D00000E94192800918A01033341F400918B012C
:103D1000003321F402E30F8F01E408A322E330E033
:103D20008E010F5E1F4F0E942B1401E5ADCF009155
:103D3000FF0A023D09F0E5C00091020B043309F0CF
:103D4000E0C00091030B003809F0DBC00091F80AD5
:103D5000109186010117E1F40091FC0A10918A018B
:103D60000117B1F40091FD0A10918B01011781F444
:103D70000091FA0A10918801011709F0C2C0009160
:103D8000FB0A10918901011709F0BBC002E57CCF45
:103D90000091F80A10918601011709F0B2C0009154
:103DA000060B0A3209F0ADC000918A01033309F015
:103DB000A8C000918B01003309F0A3C0E7CF08EC45
:103DC00010E00E940C1041E150E024E234E08E014A
:103DD0000F5E1F4F0E94192800917D010B8F0091EB
:103DE0007E010C8F009180010D8F009181010E8F5B
:103DF000009183010F8F0091840108A322E330E03A
:103E00008E010F5E1F4F0E942B1403E53DCF0091E2
:103E1000FF0A023D09F075C00091020B043309F05E
:103E200070C00091030B023809F06BC00091F80AD2
:103E300010917D01011709F064C00091F90A1091F9
:103E40007E01011709F05DC00091FA0A109180010E
:103E5000011709F056C00091FB0A1091810101176A
:103E600009F04FC00091FC0A10918301011709F07D
:103E700048C00091FD0A10918401011709F041C06A
:103E800004E502CF0DE711E01A930A9366E771E0AB
:103E9000AE01435F5F4F26E831E08E010C5F1F4F9C
:103EA0000E943A1620E00DC0FE01329630E0E20F8B
:103EB000F31F008148E150E0420F531F0E94A826E3
:103EC0002395283088F340E038E128E18E010E5F29
:103ED0001F4F0E94BE0540E034E224E105E314E0F8
:103EE0000E94BE0540E050E060E070E008E710E0AE
:103EF00020E030E00E94680800E00093D70A0093B9
:103F0000D80A0091D70A1091D80A012B59F00091D4
:103F1000870C013039F440E034E224E102E115E09D
:103F20000E94EC054D99E5C00E94C7065CD8802F21
:103F300090E024E630E0C7D98431990708F0D9C071
:103F40008A309907D0F508E1401608F4D2C008E29B
:103F5000401608F0CEC0805D8883998340E038E148
:103F6000242D8E010E94BE05042D085179F00250C7
:103F700089F1025071F0025079F0025081F0025044
:103F800089F0025091F0025099F014C008810A8320
:103F900011C008810C830EC008810D830BC00881FD
:103FA0000E8308C008810F8305C00881088702C0FE
:103FB0000881098702E0400E9CC08031990768F4AF
:103FC00008E1401608F495C008E2401608F091C0D8
:103FD000895CC2CF08810B83EDCF8031990719F03E
:103FE0008231990729F508E2401609F082C000E005
:103FF0000A8741E038E128E18E010E5F1F4F0E94E1
:10400000BE0540E034E224E103E414E00E94BE0572
:1040100000E00E94890808E813E120E030E00E94F7
:1040200096080EE410E90093D70A1093D80A61C0ED
:104030008131990769F409E1401608F45AC040E05B
:1040400038E1242D06EA13E00E94BE050EEFB3CF3F
:104050008331990709F04DC08E010E5F1F4F0E94FA
:104060002D10802F982F80E08E010C5F1F4F0E9433
:104070002D10800FA92F982F80E08E010A5F1F4F0F
:104080000E942D10800FBA2FA92F982F80E08E014B
:10409000085F1F4F0E942D10800F8F5F9F4FAF4F03
:1040A000BF4F9E018C010E9454100881088709812E
:1040B00009879E018C01012F0E94541008810E83F4
:1040C00009810F839E01BD01462F042F0E945410C9
:1040D00008810C8309810D839E018B2F082F0E947C
:1040E000541008810A8309810B8308E2401609F401
:1040F0007ECF0091BE0C013009F0B1CD509404EF99
:1041000011E020E030E00E94AB08552040E038E1AB
:10411000242D09F4A0CD08EA13E09FCD0E94B22718
:104120002397D8012901642E90E082010E940F2874
:104130000093630E0E94AC0540E034E02CE08D015A
:104140000E94BE0540E038E120E001E514E00E9455
:10415000BE0540E030E32AE009E213E00E94BE051C
:1041600040E038E42AE00AE313E00E94BE0540E0A4
:1041700030E62AE00BE413E00E94BE0540E038E799
:104180002AE00CE513E00E94BE0540E03CE822E096
:104190000CE013E00E94BE0540E03CE824E204E0AD
:1041A00013E00E94BE0504EF11E020E030E00E9421
:1041B000AB08E2E3F7E000E30083018302830383BB
:1041C0009483062D005059F00A95F9F00A9599F15B
:1041D0000A9509F446C00A9509F459C06FC020E059
:1041E0000CC030E041E150E0420F591F0E948E2682
:1041F000F901EA57FE4F00832395263090F340E003
:1042000038E128E101E110E057C020E00CC030E0C7
:104210004BE050E0420F591F0E948E26F901E058F2
:10422000FE4F00832395223090F340E038E128E1EF
:104230000BE010E041C020E00CC030E04EE050E068
:10424000420F591F0E948E26F901ED57FE4F008341
:104250002395223090F340E038E128E10EE010E0B1
:104260002BC020E00CC030E041E050E0420F591F6D
:104270000E948E26F901EA58FE4F008323952630CE
:1042800090F340E038E128E101E010E015C020E0C3
:104290000CC030E048E050E0420F591F0E948E26CB
:1042A000F901E358FE4F00832395223090F340E05C
:1042B00038E128E108E010E00E941E068091630EBC
:1042C000880F885E06C006EA13E00E94BE050E94C1
:1042D000A4064D99C4C00E94C7060E94F317A02FE0
:1042E000B0E024E630E02AD9AA30BB0738F0A0318C
:1042F000BB0721F0A131BB0709F0B1C0AA30BB0751
:1043000030F5883108F4ABC0282F30E00091630EFF
:1043100012E0019F08E1000E1B1E201531050CF074
:104320009EC0A05DA883B98340E038E18E010E9461
:10433000BE05082F10E00851104042E050E00E94F6
:10434000DF26F201E00FFB1FA0838E5F88C0A03143
:10435000BB0709F077C0282F30E00091630E12E010
:10436000019F08E1000E1B1E2015310509F077C0E2
:1043700040E038E128E10BE514E00E94BE05062D7F
:10438000005051F00A95C9F00A9539F10A95A9F142
:104390000A9509F442C051C020E0263008F04DC013
:1043A00030E0F901EA57FE4F008141E150E0420F51
:1043B0005B1F0E94A8262395F0CF20E02230E8F56D
:1043C00030E0F901E058FE4F00814BE050E0420F31
:1043D0005B1F0E94A8262395F1CF20E0223068F5CC
:1043E00030E0F901ED57FE4F00814EE050E0420F02
:1043F0005B1F0E94A8262395F1CF20E02630E8F429
:1044000030E0F901EA58FE4F008141E050E0420FF0
:104410005B1F0E94A8262395F1CF20E00CC030E05E
:10442000F901E358FE4F008148E050E0420F5B1F66
:104430000E94A8262395223090F300E02396E7E01F
:104440000C94C327A131BB0751F4893140F040E0FF
:1044500038E1282F06EA13E00E94BE058250009141
:10446000BE0C013009F033CF909504EF11E020E04D
:1044700030E00E94AB08992340E038E1282F09F48E
:1044800022CF08EA13E021CF0E94B127E797D80195
:10449000390190E088E183010E940F280093640EA7
:1044A0000E94AC0540E034E02CE08D010E94BE0586
:1044B00040E038E120E001E514E00E94BE0540E064
:1044C00034E220E006E614E00E94BE0540E030E35E
:1044D0002AE009E213E00E94BE0540E038E42AE049
:1044E0000AE313E00E94BE0540E030E62AE00BE458
:1044F00013E00E94BE0540E038E72AE00CE513E037
:104500000E94BE0540E03CE822E00CE013E00E947F
:10451000BE0540E03CE824E208E113E00E94BE054D
:1045200004EF11E020E030E00E94AB08E2E3F7E0A6
:1045300000E3008301830283038300E0948306C0C9
:10454000FE01B696E00FF91F908303950031C0F38A
:1045500000E006C0FE013396E00FF91F908303953B
:104560000830C0F39DA39EAB9C8B02E00093450DE9
:1045700000E00E94890808C006EA13E00E94BE0518
:104580000E94A4060E94C0080E94F0120023E1F7D6
:10459000EFE0FBE00281023161F40381002321F4AA
:1045A00001E00E94890815C00381013091F400E008
:1045B000F8CF02810D3169F40381002351F444EFF7
:1045C00051E060E070E004EF11E020E030E00E9494
:1045D000680840E150E02EEE3AE08E010B5E1F4F7E
:1045E0000E94192848E050E027E03BE08E01045F7C
:1045F0001F4F0E9419289E012B5E3F4F8E010A5DBE
:104600001F4F0E94F927012B81F040E034E224E1A2
:104610008E010A5D1F4F0E94BE0540E150E09E01E1
:104620002B5E3F4F8E010A5D20C09E01245F3F4FED
:104630008E010D5F1F4F0E94F927012BC9F040E04A
:1046400034E224E18E010D5F1F4F0E94BE0540E061
:1046500034E224E200E714E00E94BE0548E050E0A6
:104660009E01245F3F4F8E010D5F1F4F0E9419284E
:104670000091D70A1091D80AE6E1FAE00C9443279A
:104680000091870C002389F50091FF0A003D09F095
:104690009BC00091F50A043309F096C041E150E057
:1046A00029E734E08E010B5E1F4F0E94192848E075
:1046B00050E026EF3AE08E01035E1F4F0E9419285A
:1046C00022E330E08E010B5E1F4F0E942B1400EAA4
:1046D0001FE020E030E00E94960808E410E9009313
:1046E000D70A1093D80A00006FC00AE814E00E94AD
:1046F000491922E330E003E914E00E942B1408EE8C
:1047000013E020E030E00E94960807E410E90093EF
:10471000D70A1093D80A58C00091870C002309F0DB
:1047200053C0EFEFFAE00381043309F04DC0048178
:10473000003809F049C0478009E4E8CF0091870CB0
:10474000002399F4EFEFFAE003810433E9F50481E3
:104750000B38D1F505810230B9F506810330A1F59A
:104760000781013889F50AE4D1CF0091870C013027
:1047700059F522E330E004EA14E00E942B1400E033
:104780000093D70A0093D80A1FC0EFEFFAE0038125
:10479000043331F404810C3819F407810A3A21F00A
:1047A0000091870C002381F0042D0052075020F067
:1047B000025011F00A9539F4AAD00BE410E90093E5
:1047C000D70A1093D80A00004D998CC00E94C706E2
:1047D0000E94F317A02FB0E024E630E00E94791B7E
:1047E000AA3000E0B00738F0A031B00721F0A131C5
:1047F000B00709F077C0AA30B00730F5883108F467
:1048000071C0282F30E00091640E12E0019F08E192
:10481000000E1B1E201531050CF064C0A05DA8839E
:10482000B98340E038E18E010E94BE05082F10E0F8
:104830000851104042E050E00E94DF26F301E00FF3
:10484000FB1FA0838E5F4EC0A031B007F1F50E9420
:104850008908282F30E00091640E12E0019F08E1E2
:10486000000E1B1E20153105E9F5E6E8F1E0008198
:104870000033C1F501810433A9F50281083391F5B4
:104880000381083379F50481088305810983BA839C
:104890008E010E942D100052075020F0025011F09E
:1048A000075001F522E330E003E914E00E942B14E5
:1048B00008EE13E020E030E00E94960807E410E9DB
:1048C0000093D70A1093D80A0DC0A131BB0751F449
:1048D000893140F040E038E1282F06EA13E00E94D9
:1048E000BE0582500091BE0C013009F049CE909572
:1048F00004EF11E020E030E00E94AB08992340E093
:1049000038E1282F09F438CE08EA13E037CE24E640
:1049100030E005EB14E00E942B1411E002E025D0FA
:1049200015E002E022D016E002E01FD017E000E020
:104930001CD018E000E019D01DE001E016D01EE008
:1049400001E013D01CE101E010D01DE102E00DD028
:1049500024E630E006EC14E00E942B1422E330E061
:1049600004EA14E00E942B1408958A936497812F1F
:104970009E010E94541041E150E02CEE34E08E0183
:104980000D5F1F4F0E94192808810D8709810E872E
:104990009E01082F0E94541008810F870981088BFF
:1049A00024E630E08E010D5F1F4F0E942B146496A9
:1049B000899108959A938A9380E090E0FE0132965F
:1049C000E80FF91F1081209130073091310701E085
:1049D0000E9466120196E0E3F7E0008111810F5F0B
:1049E0001F4F00831183863200E0900738F3009157
:1049F000300710913107043E20E0120770F041E2C9
:104A000050E00E9491260F5F1F4F41E250E00E944C
:104A1000AC26209330072093310700913007109186
:104A2000310743E250E00E94AC2641E250E00E9490
:104A30009126980101E00E947C1220E030E000E025
:104A400010E00E949D1280E090E008C000E00E940B
:104A50004112FC01E05DF94F00830196803001E0D6
:104A60009007A0F300913006003309F0FFCF80E0FB
:104A700090E009C000E00E94411210E08017910709
:104A800009F000000196803001E0900798F30000E3
:104A9000409A00E089919991A69608959A938A93F5
:104AA000FA93EA933A922A921A920A927A936A9322
:104AB0005A934A933A932A931A930A939FB7229749
:104AC0000FEF088300E009832091C60080E001C059
:104AD0008395833268F4482F50E008E110E00E948B
:104AE000B326F801E75CF84F0689002389F748836D
:104AF000488150E008E110E00E94B326F801E75C2D
:104B0000F84F0689002309F06CC0243249F448812B
:104B100008E110E00E94B326F801E75CF84F558BDE
:104B20003881488108E110E00E94B326E9E3F7E00C
:104B3000E00FF11F6589062F0395058B432F08E1D0
:104B400010E00E94B326E9E3F7E0E00FF11F062F23
:104B500010E0E00FF11F20832D3009F042C00881E2
:104B6000002321F421E0488108E135C080E001C044
:104B700083950881801728F5482F50E008E110E060
:104B80000E94B32629E337E0200F311F488108E156
:104B900010E00E94B326A80109E317E0040F151FD7
:104BA0000E94F927012B21F720E0488150E008E11D
:104BB00010E00E94B326F801E75CF84F268B01E075
:104BC00009830981002311F020E001C021E0488120
:104BD00050E008E110E00E94B326F801E75CF84FCE
:104BE000268B22969FBF099119912991399149915C
:104BF0005991699179910990199029903990E99189
:104C0000F991899199911895FA93EA932A931A93B5
:104C10000A932FB70091770E0023C9F00091770E09
:104C20000A950093770E0091760E10E0F801EB598B
:104C3000F14F00810093C6000091760E039500931A
:104C4000760E0091760E003111F41093760E2FBF80
:104C5000099119912991E991F9911895AD01E5E62C
:104C6000FEE012891031D9F3F8941289112329F446
:104C70001091C000212F25FD11C0208930E0DF01F7
:104C8000A20FB31F0C9300890395008B008900319C
:104C900009F4308B02890395028B02C00093C60091
:104CA0007894DA010895BA93AA93D80102C00D91BD
:104CB000D5DF0C910023D9F7A991B991089500E0AF
:104CC0000093C00008ED0093C10006E00093C2000D
:104CD00000E00093C5000BE00093C40008950000BD
:104CE0008895FECF07EB0DBF0EE00EBFC8EBDFE0EF
:104CF0000E94CF27002311F00E94DF270E94921507
:104D00000E946F260C946F26F999FECF08954F5F8D
:104D10005F4FFADF41BD52BDF89A0895FADF00B542
:104D20000895F7DF00B5F3DF10B50895F2DF00B5A1
:104D3000EEDF10B5ECDF20B5EADF30B508954F5F48
:104D40005F4F41BD52BDF894FA9AF99A0FBE08958B
:104D50000FB6DADF00BDF5CF0FB6D6DF00BDF1DF4D
:104D6000D3DF10BDECCF149F102D059F100D049FB5
:104D7000002D110D08954A951AF0000F111FFBCF59
:104D800008954A951AF016950795FBCF08950024CB
:104D90001124EFE0001F111F001C111C0416150642
:104DA00010F0041A150AEA95AAF7001F111FA001B6
:104DB0000095109508955195419550400895FF270D
:104DC000552312F4F160F7DF112312F4F09507D0A8
:104DD0000E94C726F0FD03D0F1FDEDCF0895119597
:104DE0000195104008952224349F302D259F300DC9
:104DF000169F300D079F300D249F202D310D159FDC
:104E0000200D311D069F200D311D149F102D210DE9
:104E1000321D059F100D211D321D049F002D110D07
:104E2000221D321D0895002411241001E0E2EA95AC
:104E300092F0001F111F221F331F001C111C221C87
:104E4000331C041615062606370688F3041A150ABD
:104E5000260A370AECCF001F111F221F331FA001A3
:104E6000B101009510952095309508957591659143
:104E700055914591159011FA259035900895F9DFD7
:104E8000041B10E003C0F4DF041B150B20E030E02E
:104E900005C0ECDF041B150B260B370BB8F010FC1C
:104EA00017C045910590E00FF11F0417100540E071
:104EB0002407340758F436F404910024F101E01B70
:104EC000F0090994E00FF11F25903590F101099444
:104ED00011F4D6F7F1CF31960EF0319650E060E044
:104EE00070E045914B3F48F089F34F3F29F04E3F2A
:104EF00011F07591659155914591041B150B260B89
:104F0000370B39F318F3E7CFAF93BF93D801059070
:104F10000D9241505040D9F7BF91AF910895E00FE5
:104F2000F11F02900A9201501040D9F708950E9493
:104F30008E264F5F5F4F019311502040C1F70895B7
:104F400005910E94A8264F5F5F4F11502040C1F786
:104F50000895FA92EA92DA92CA92BA92AA929A9230
:104F60008A927A926A925A924A92BA93AA939A939E
:104F70008A930895FF84EE84DD84CC84BB84AA8464
:104F8000998488847F806E805D804C80BB81AA81FB
:104F900099818881F0E0EC0FFD1FEF01089501E099
:104FA000089520E006D0E9F70895259102D0E9F7A9
:104FB00008952D9301501040202F212B089586E253
:104FC0009AE0FC0105911491FC013296A591B491EF
:104FD000FC01349625913491422F432B19F0F901AD
:104FE000E4DF01C0DEDF06961AE08233910748F362
:104FF000089502C02F5F3F4FF8014081F9015081B1
:10500000451741F4F80131968F01442399F700E0E8
:1050100010E00895042F10E0051B10400895F801DA
:1050200001C0319620812223E1F7E01BF10B8F01B3
:105030000895BD01D801F90198010DD049F0019101
:105040000D930023D1F707D019F000E00D93FBCFAB
:105050008901DB0108958A0141505040012B0895D8
:105060004230303039393030004432303030313431
:105070003238433030303934300042353030313519
:105080003030004230303039393046004432303030
:1050900030313432384332323039344600443230E1
:1050A00030303134323843303030393435004432E6
:1050B00030303031343238433030303934460024E7
:1050C00030390D00243237303530300D0024303285
:1050D000313030300D003030303030300030300082
:1050E0003030003030003030303030300030393542
:1050F0003000303030353030303000303230003039
:10510000320030310030313036303000303430351C
:1051100032330070726F64756374206D6F64656CF8
:105120000072656C656173652079656172007265F6
:105130006C65617365207765656B00736F66747766
:105140006172652076657273696F6E006861726462
:10515000776172652076657273696F6E0066756E31
:105160006374696F6E616C6974792074657374001F
:105170005E46485C5E4644005C30445C30414944D5
:105180003A005C30445C304100203030375C3044C1
:105190005C30410030343838323000303438383206
:1051A000310030343838323200303438383233005D
:1051B0003034383832340030343838323500303416
:1051C00038383236003034383832390030343838F4
:1051D00032380030343838333100303438383330F6
:1051E00000424D53453330303100424D534533304A
:1051F000303200424D53453330303300424D534539
:105200003230303500424D53453230303100424D5E
:1052100053453230303200424D5345323030330046
:10522000424D53453230303400424D5345333030D7
:105230003500424D53453230303700424D534532F0
:105240003030360030003100320033003400350099
:105250003600370038003900410042004300440066
:1052600045004600436F6E6669726D0044656C656B
:105270007465004E657874002020506E4720002031
:10528000202020204C75783A003120202020322028
:1052900020202033202020202000342020202035F2
:1052A00020202020362020202020003720202020F1
:1052B00038202020203920202020200020202020DD
:1052C00020302020202020202020202000443230A8
:1052D00030303134323134303030303031004432DB
:1052E00030303031343231303030303030300044D2
:1052F00032303030313432313430303030464600A4
:1053000020202020200020005F0044656C69766525
:1053100072792053746174696F6E00496E70757490
:105320002049443A00202020496E666F723A0031CD
:105330002020202032202020203320202020410047
:1053400034202020203520202020362020202042FC
:105350000037202020203820202020392020202025
:1053600043004520202020302020202046202020DF
:105370002044004432303030313432383030303034
:105380003030300044323030303134323832303026
:10539000303030300049442050726F6772616D6D5B
:1053A0006564002020202020202020202020202094
:1053B00000202020496E7075743A002020202020A3
:1053C0002020202020002020204672616D653A00B8
:1053D0002020202020202020004430303030313068
:1053E0003630303030303030300046464646464663
:1053F0004646004430303030313033303030303099
:105400003030300044323031303134323843303093
:105410003030464600443230313031343238423058
:105420003041383031004432303130313432384359
:10543000303030304141004465632031312032301A
:1054400030390032333A32343A3236004432303175
:10545000303134323844303230313031003C0000A9
:10546000007800000000000000000000001E0000A6
:10547000003000000000000000000000003C0000C0
:10548000003000000000000000000000005A000092
:10549000003000000000000000000000001E0000BE
:1054A000004800000000000000000000003C000078
:1054B000004800000000000000000000005A00004A
:1054C000004800000000000000000000001E000076
:1054D000006000000000000000000000003C000030
:1054E000006000000000000000000000005A000002
:1054F00000600000000000000000000000780000D4
:1055000000300000000000000000000000780000F3
:1055100000480000000000000000000000780000CB
:1055200000600000000000000000000000780000A3
:10553000007800000000000000000000001E0000D5
:10554000007800000000000000000000005A000089
:1055500000780000000000000000000000000000D3
:105560000000000000960000005807000000000046
:105570000044303030303130323030303030303044
:025580003000F9
:0400000300000000F9
:00000001FF
